{
  "contractName": "Digraph",
  "abi": [
    {
      "constant": false,
      "inputs": [
        {
          "name": "self",
          "type": "Digraph.Digraph storage"
        },
        {
          "name": "_V",
          "type": "uint256"
        }
      ],
      "name": "createDigraph",
      "outputs": [],
      "payable": false,
      "stateMutability": "nonpayable",
      "type": "function"
    },
    {
      "constant": true,
      "inputs": [
        {
          "name": "self",
          "type": "Digraph.Digraph storage"
        }
      ],
      "name": "getV",
      "outputs": [
        {
          "name": "",
          "type": "uint256"
        }
      ],
      "payable": false,
      "stateMutability": "view",
      "type": "function"
    },
    {
      "constant": true,
      "inputs": [
        {
          "name": "self",
          "type": "Digraph.Digraph storage"
        }
      ],
      "name": "getE",
      "outputs": [
        {
          "name": "",
          "type": "uint256"
        }
      ],
      "payable": false,
      "stateMutability": "view",
      "type": "function"
    },
    {
      "constant": true,
      "inputs": [
        {
          "name": "self",
          "type": "Digraph.Digraph storage"
        },
        {
          "name": "v",
          "type": "uint256"
        }
      ],
      "name": "getAdj",
      "outputs": [
        {
          "name": "",
          "type": "uint256[]"
        }
      ],
      "payable": false,
      "stateMutability": "view",
      "type": "function"
    },
    {
      "constant": false,
      "inputs": [
        {
          "name": "self",
          "type": "Digraph.Digraph storage"
        },
        {
          "name": "v",
          "type": "uint256"
        },
        {
          "name": "w",
          "type": "uint256"
        }
      ],
      "name": "addEdge",
      "outputs": [],
      "payable": false,
      "stateMutability": "nonpayable",
      "type": "function"
    }
  ],
  "bytecode": "0x610331610030600b82828239805160001a6073146000811461002057610022565bfe5b5030600052607381538281f3fe73000000000000000000000000000000000000000030146080604052600436106100835763ffffffff7c010000000000000000000000000000000000000000000000000000000060003504166318c7431981146100885780633c967a1a146100fb578063856570be14610133578063a8e793e814610162578063e4e1b84314610192575b600080fd5b6100ab6004803603604081101561009e57600080fd5b50803590602001356101af565b60408051602080825283518183015283519192839290830191858101910280838360005b838110156100e75781810151838201526020016100cf565b505050509050019250505060405180910390f35b81801561010757600080fd5b506101316004803603606081101561011e57600080fd5b5080359060208101359060400135610214565b005b6101506004803603602081101561014957600080fd5b5035610244565b60408051918252519081900360200190f35b81801561016e57600080fd5b506101316004803603604081101561018557600080fd5b5080359060200135610248565b610150600480360360208110156101a857600080fd5b5035610296565b600081815260028301602090815260409182902080548351818402810184019094528084526060939283018282801561020757602002820191906000526020600020905b8154815260200190600101908083116101f3575b5050505050905092915050565b60009182526002830160209081526040832080546001818101835591855291909320015590810180549091019055565b5490565b8082556000600183018190555b8254811015610291576040805160008082526020808301808552858352600288019091529290209051610288929061029d565b50600101610255565b505050565b6001015490565b8280548282559060005260206000209081019282156102d8579160200282015b828111156102d85782518255916020019190600101906102bd565b506102e49291506102e8565b5090565b61030291905b808211156102e457600081556001016102ee565b9056fea165627a7a72305820545d1994470e31c96c2bcd6bdc30a866d4d5b29be5c2c794e79b715bd70fc7460029",
  "source": "pragma solidity ^0.5.0;\n\nlibrary Digraph {\n\n  struct Digraph {\n    uint V;\n    uint E;\n    mapping (uint => uint[]) adj;\n  }\n\n  function createDigraph(Digraph storage self, uint _V) public\n  {\n    self.V = _V;\n    self.E = 0;\n    for (uint v = 0; v < self.V; v++)\n      self.adj[v] = new uint[](0);\n  }\n\n  function getV(Digraph storage self) public view returns (uint) { return self.V; }\n  function getE(Digraph storage self) public view returns (uint) { return self.E; }\n  function getAdj(Digraph storage self, uint v) public view returns (uint[] memory)\n  { return self.adj[v]; }\n\n  function addEdge(Digraph storage self, uint v, uint w) public\n  {\n    self.adj[v].push(w);\n    self.E++;\n  }\n\n\n  /* struct Data {\n    bytes32 title;\n    bool done;\n    uint[] documents;\n  }\n\n  struct Edge {\n    bytes32 from;\n    bytes32 to;\n  }\n\n  mapping (bytes32 => Data) public datas;\n\n  Edge[] public edges;\n\n  constructor() public {\n    _addData(\"root\");\n    datas[\"root\"].done = true;\n  }\n\n  function _addData(bytes32 _title) {\n    datas[_title] = Data(_title, false, new uint[](0));\n  }\n\n  function _addEdge(bytes32 from, bytes32 to) {\n    edges.push(Edge(from,to));\n  } */\n\n}\n",
  "sourcePath": "/Users/livhborre/Projects/Bachelor/process42/contracts/Digraph.sol",
  "compiler": {
    "name": "solc",
    "version": "0.5.0+commit.1d4f565a.Emscripten.clang"
  },
  "schemaVersion": "3.0.1",
  "updatedAt": "2019-02-27T09:49:29.998Z",
  "devdoc": {
    "methods": {}
  },
  "userdoc": {
    "methods": {}
  }
}