{
  "contractName": "Graph",
  "abi": [
    {
      "constant": false,
      "inputs": [
        {
          "name": "self",
          "type": "Graph.Digraph storage"
        },
        {
          "name": "_V",
          "type": "uint256"
        }
      ],
      "name": "createDigraph",
      "outputs": [],
      "payable": false,
      "stateMutability": "nonpayable",
      "type": "function"
    },
    {
      "constant": true,
      "inputs": [
        {
          "name": "self",
          "type": "Graph.Digraph storage"
        }
      ],
      "name": "getV",
      "outputs": [
        {
          "name": "",
          "type": "uint256"
        }
      ],
      "payable": false,
      "stateMutability": "view",
      "type": "function"
    },
    {
      "constant": true,
      "inputs": [
        {
          "name": "self",
          "type": "Graph.Digraph storage"
        }
      ],
      "name": "getE",
      "outputs": [
        {
          "name": "",
          "type": "uint256"
        }
      ],
      "payable": false,
      "stateMutability": "view",
      "type": "function"
    },
    {
      "constant": true,
      "inputs": [
        {
          "name": "self",
          "type": "Graph.Digraph storage"
        },
        {
          "name": "v",
          "type": "uint256"
        }
      ],
      "name": "getAdj",
      "outputs": [
        {
          "name": "",
          "type": "uint256[]"
        }
      ],
      "payable": false,
      "stateMutability": "view",
      "type": "function"
    },
    {
      "constant": false,
      "inputs": [
        {
          "name": "self",
          "type": "Graph.Digraph storage"
        },
        {
          "name": "v",
          "type": "uint256"
        },
        {
          "name": "w",
          "type": "uint256"
        }
      ],
      "name": "addEdge",
      "outputs": [],
      "payable": false,
      "stateMutability": "nonpayable",
      "type": "function"
    }
  ],
  "bytecode": "0x610331610030600b82828239805160001a6073146000811461002057610022565bfe5b5030600052607381538281f3fe73000000000000000000000000000000000000000030146080604052600436106100835763ffffffff7c01000000000000000000000000000000000000000000000000000000006000350416631891c5bb81146100885780631f6f3585146100b757806391a79c40146100ef578063b337bd351461010c578063c5602b601461017f575b600080fd5b6100a56004803603602081101561009e57600080fd5b50356101af565b60408051918252519081900360200190f35b8180156100c357600080fd5b506100ed600480360360608110156100da57600080fd5b50803590602081013590604001356101b6565b005b6100a56004803603602081101561010557600080fd5b50356101e6565b61012f6004803603604081101561012257600080fd5b50803590602001356101ea565b60408051602080825283518183015283519192839290830191858101910280838360005b8381101561016b578181015183820152602001610153565b505050509050019250505060405180910390f35b81801561018b57600080fd5b506100ed600480360360408110156101a257600080fd5b508035906020013561024f565b6001015490565b60009182526002830160209081526040832080546001818101835591855291909320015590810180549091019055565b5490565b600081815260028301602090815260409182902080548351818402810184019094528084526060939283018282801561024257602002820191906000526020600020905b81548152602001906001019080831161022e575b5050505050905092915050565b8082556000600183018190555b825481101561029857604080516000808252602080830180855285835260028801909152929020905161028f929061029d565b5060010161025c565b505050565b8280548282559060005260206000209081019282156102d8579160200282015b828111156102d85782518255916020019190600101906102bd565b506102e49291506102e8565b5090565b61030291905b808211156102e457600081556001016102ee565b9056fea165627a7a72305820bcbb592cb48c9dc3646352b6ac906dd6c6d88858ecbe9fedf0bee61b3012e8960029",
  "source": "pragma solidity ^0.5.0;\n\nlibrary Graph {\n\n  struct Digraph {\n    uint V;\n    uint E;\n    mapping (uint => uint[]) adj;\n  }\n\n  function createDigraph(Digraph storage self, uint _V) public\n  {\n    self.V = _V;\n    self.E = 0;\n    for (uint v = 0; v < self.V; v++)\n      self.adj[v] = new uint[](0);\n  }\n\n  function getV(Digraph storage self) public view returns (uint) { return self.V; }\n  function getE(Digraph storage self) public view returns (uint) { return self.E; }\n  function getAdj(Digraph storage self, uint v) public view returns (uint[] memory)\n  { return self.adj[v]; }\n\n  function addEdge(Digraph storage self, uint v, uint w) public\n  {\n    self.adj[v].push(w);\n    self.E++;\n  }\n\n\n  /* struct Data {\n    bytes32 title;\n    bool done;\n    uint[] documents;\n  }\n\n  struct Edge {\n    bytes32 from;\n    bytes32 to;\n  }\n\n  mapping (bytes32 => Data) public datas;\n\n  Edge[] public edges;\n\n  constructor() public {\n    _addData(\"root\");\n    datas[\"root\"].done = true;\n  }\n\n  function _addData(bytes32 _title) {\n    datas[_title] = Data(_title, false, new uint[](0));\n  }\n\n  function _addEdge(bytes32 from, bytes32 to) {\n    edges.push(Edge(from,to));\n  } */\n\n}\n",
  "sourcePath": "/Users/livhborre/Projects/Bachelor/process42/contracts/Graph.sol",
  "compiler": {
    "name": "solc",
    "version": "0.5.0+commit.1d4f565a.Emscripten.clang"
  },
  "schemaVersion": "3.0.1",
  "updatedAt": "2019-02-27T10:06:20.332Z",
  "devdoc": {
    "methods": {}
  },
  "userdoc": {
    "methods": {}
  }
}