{
  "contractName": "Graph",
  "abi": [
    {
      "constant": false,
      "inputs": [
        {
          "name": "self",
          "type": "Graph.Digraph storage"
        }
      ],
      "name": "init",
      "outputs": [],
      "payable": false,
      "stateMutability": "nonpayable",
      "type": "function"
    },
    {
      "constant": false,
      "inputs": [
        {
          "name": "self",
          "type": "Graph.Digraph storage"
        },
        {
          "name": "title",
          "type": "bytes32"
        }
      ],
      "name": "addVertex",
      "outputs": [],
      "payable": false,
      "stateMutability": "nonpayable",
      "type": "function"
    },
    {
      "constant": true,
      "inputs": [
        {
          "name": "self",
          "type": "Graph.Digraph storage"
        },
        {
          "name": "v",
          "type": "bytes32"
        }
      ],
      "name": "getAdj",
      "outputs": [
        {
          "name": "",
          "type": "uint256[]"
        }
      ],
      "payable": false,
      "stateMutability": "view",
      "type": "function"
    },
    {
      "constant": false,
      "inputs": [
        {
          "name": "self",
          "type": "Graph.Digraph storage"
        },
        {
          "name": "v",
          "type": "bytes32"
        },
        {
          "name": "w",
          "type": "bytes32"
        }
      ],
      "name": "addEdge",
      "outputs": [],
      "payable": false,
      "stateMutability": "nonpayable",
      "type": "function"
    },
    {
      "constant": false,
      "inputs": [
        {
          "name": "self",
          "type": "Graph.Digraph storage"
        },
        {
          "name": "v",
          "type": "uint256"
        },
        {
          "name": "w",
          "type": "uint256"
        }
      ],
      "name": "addEdgeByID",
      "outputs": [],
      "payable": false,
      "stateMutability": "nonpayable",
      "type": "function"
    },
    {
      "constant": true,
      "inputs": [
        {
          "name": "self",
          "type": "Graph.Digraph storage"
        },
        {
          "name": "title",
          "type": "bytes32"
        },
        {
          "name": "caseID",
          "type": "uint256"
        }
      ],
      "name": "isReady",
      "outputs": [
        {
          "name": "",
          "type": "bool"
        }
      ],
      "payable": false,
      "stateMutability": "view",
      "type": "function"
    },
    {
      "constant": true,
      "inputs": [
        {
          "name": "self",
          "type": "Graph.Digraph storage"
        },
        {
          "name": "id",
          "type": "uint256"
        },
        {
          "name": "caseID",
          "type": "uint256"
        }
      ],
      "name": "isReadyByID",
      "outputs": [
        {
          "name": "",
          "type": "bool"
        }
      ],
      "payable": false,
      "stateMutability": "view",
      "type": "function"
    }
  ],
  "bytecode": "0x610586610030600b82828239805160001a6073146000811461002057610022565bfe5b5030600052607381538281f3fe73000000000000000000000000000000000000000030146080604052600436106100995763ffffffff7c010000000000000000000000000000000000000000000000000000000060003504166362d038aa811461009e57806387a87bcc146101115780639c639b4b14610149578063b68529c514610179578063d4949347146101a3578063ebf85685146101e0578063f17ab22c14610216575b600080fd5b6100c1600480360360408110156100b457600080fd5b508035906020013561023f565b60408051602080825283518183015283519192839290830191858101910280838360005b838110156100fd5781810151838201526020016100e5565b505050509050019250505060405180910390f35b81801561011d57600080fd5b506101476004803603606081101561013457600080fd5b50803590602081013590604001356102ca565b005b81801561015557600080fd5b506101476004803603604081101561016c57600080fd5b508035906020013561033a565b81801561018557600080fd5b506101476004803603602081101561019c57600080fd5b50356103c6565b6101cc600480360360608110156101b957600080fd5b5080359060208101359060400135610460565b604080519115158252519081900360200190f35b8180156101ec57600080fd5b506101476004803603606081101561020357600080fd5b50803590602081013590604001356104a5565b6101cc6004803603606081101561022c57600080fd5b50803590602081013590604001356104cd565b600081815260038301602052604090205460028301805460609290811061026257fe5b90600052602060002090600402016001018054806020026020016040519081016040528092919081815260200182805480156102bd57602002820191906000526020600020905b8154815260200190600101908083116102a9575b5050505050905092915050565b600283018054839081106102da57fe5b6000918252602080832060016004909302018201805492830181558352909120018190556002830180548290811061030e57fe5b600091825260209091206002600490920201018054600190810190915592830180549093019092555050565b815460008281526003840160209081526040808320939093558251606081018452848152835183815280830185528183019081529381018390526002860180546001808201808455928652948490208351600490920201908155945180519195929492936103ad938501929101906104f2565b5060409190910151600290910155505080546001019055565b60008082556001808301829055604080516060810182527f726f6f740000000000000000000000000000000000000000000000000000000081528151848152602080820184528083019182529282018590526002860180548086018083559187529584902083516004909702019586559051805191959294929361044f938501929101906104f2565b506040820151816002015550505050565b600080846002018481548110151561047457fe5b6000918252602080832086845260036004909302019182019052604090912054600290910154149150509392505050565b6000828152600384016020526040808220548383529120546104c89185916102ca565b505050565b60008281526003840160205260408120546104e9858285610460565b95945050505050565b82805482825590600052602060002090810192821561052d579160200282015b8281111561052d578251825591602001919060010190610512565b5061053992915061053d565b5090565b61055791905b808211156105395760008155600101610543565b9056fea165627a7a7230582063a98bcab07b5e0304f485e3696bfae5c461200bf5425583022d560543dcbb180029",
  "source": "pragma solidity ^0.5.0;\n\nlibrary Graph {\n\n  struct Digraph {\n    uint V;\n    uint E;\n    Vertex[] vertxs;\n    mapping (bytes32 => uint) titleToID;\n  }\n\n  struct Vertex {\n  \tbytes32 title;\n    uint[] adj;\n  \tuint tokensRequired;\n    mapping (uint => uint) caseToTokens;\n  }\n\n  function init(Digraph storage self) public\n  {\n    self.V = 0;\n    self.E = 0;\n    self.vertxs.push(Vertex(\"root\", new uint[](0), 0));\n  }\n\n  function addVertex(Digraph storage self, bytes32 title) public {\n    self.titleToID[title] = self.V;\n    self.vertxs.push(Vertex(title, new uint[](0), 0));\n    self.V++;\n  }\n\n  function getAdj(Digraph storage self, bytes32 v) public view returns (uint[] memory)\n  { return self.vertxs[self.titleToID[v]].adj; }\n\n  function addEdge(Digraph storage self, bytes32 v, bytes32 w) public {\n    addEdgeByID(self, self.titleToID[v], self.titleToID[w]);\n  }\n\n  function addEdgeByID(Digraph storage self, uint v, uint w) public\n  {\n    self.vertxs[v].adj.push(w);\n    self.vertxs[w].tokensRequired++;\n    self.E++;\n  }\n\n  function isReady(Digraph storage self, bytes32 title, uint caseID) public view returns (bool){\n    uint id = self.titleToID[title];\n    return isReadyByID(self, id, caseID);\n  }\n\n  function isReadyByID(Digraph storage self, uint id, uint caseID) public view returns (bool){\n    Vertex storage v = self.vertxs[id];\n    uint tokens = v.caseToTokens[caseID];\n    return (tokens == v.tokensRequired);\n  }\n\n\n  /* struct Data {\n    bytes32 title;\n    bool done;\n    uint[] documents;\n  }\n\n  struct Edge {\n    bytes32 from;\n    bytes32 to;\n  }\n\n  mapping (bytes32 => Data) public datas;\n\n  Edge[] public edges;\n\n  constructor() public {\n    _addData(\"root\");\n    datas[\"root\"].done = true;\n  }\n\n  function _addData(bytes32 _title) {\n    datas[_title] = Data(_title, false, new uint[](0));\n  }\n\n  function _addEdge(bytes32 from, bytes32 to) {\n    edges.push(Edge(from,to));\n  } */\n\n}\n",
  "sourcePath": "/Users/livhborre/Projects/Bachelor/process42/contracts/Graph.sol",
  "compiler": {
    "name": "solc",
    "version": "0.5.0+commit.1d4f565a.Emscripten.clang"
  },
  "schemaVersion": "3.0.1",
  "updatedAt": "2019-03-01T09:00:11.978Z",
  "devdoc": {
    "methods": {}
  },
  "userdoc": {
    "methods": {}
  }
}