{
  "contractName": "Graph",
  "abi": [
    {
      "constant": false,
      "inputs": [
        {
          "name": "self",
          "type": "Graph.Digraph storage"
        }
      ],
      "name": "init",
      "outputs": [],
      "payable": false,
      "stateMutability": "nonpayable",
      "type": "function"
    },
    {
      "constant": false,
      "inputs": [
        {
          "name": "self",
          "type": "Graph.Digraph storage"
        },
        {
          "name": "title",
          "type": "bytes32"
        }
      ],
      "name": "addVertex",
      "outputs": [],
      "payable": false,
      "stateMutability": "nonpayable",
      "type": "function"
    },
    {
      "constant": true,
      "inputs": [
        {
          "name": "self",
          "type": "Graph.Digraph storage"
        },
        {
          "name": "v",
          "type": "bytes32"
        }
      ],
      "name": "getAdj",
      "outputs": [
        {
          "name": "",
          "type": "uint256[]"
        }
      ],
      "payable": false,
      "stateMutability": "view",
      "type": "function"
    },
    {
      "constant": false,
      "inputs": [
        {
          "name": "self",
          "type": "Graph.Digraph storage"
        },
        {
          "name": "v",
          "type": "bytes32"
        },
        {
          "name": "w",
          "type": "bytes32"
        }
      ],
      "name": "addEdge",
      "outputs": [],
      "payable": false,
      "stateMutability": "nonpayable",
      "type": "function"
    },
    {
      "constant": false,
      "inputs": [
        {
          "name": "self",
          "type": "Graph.Digraph storage"
        },
        {
          "name": "v",
          "type": "uint256"
        },
        {
          "name": "w",
          "type": "uint256"
        }
      ],
      "name": "addEdgeByID",
      "outputs": [],
      "payable": false,
      "stateMutability": "nonpayable",
      "type": "function"
    },
    {
      "constant": false,
      "inputs": [
        {
          "name": "self",
          "type": "Graph.Digraph storage"
        },
        {
          "name": "title",
          "type": "bytes32"
        },
        {
          "name": "caseID",
          "type": "uint256"
        },
        {
          "name": "status",
          "type": "Graph.Status"
        }
      ],
      "name": "setStatus",
      "outputs": [],
      "payable": false,
      "stateMutability": "nonpayable",
      "type": "function"
    },
    {
      "constant": false,
      "inputs": [
        {
          "name": "self",
          "type": "Graph.Digraph storage"
        },
        {
          "name": "caseID",
          "type": "uint256"
        }
      ],
      "name": "addCase",
      "outputs": [],
      "payable": false,
      "stateMutability": "nonpayable",
      "type": "function"
    },
    {
      "constant": false,
      "inputs": [
        {
          "name": "self",
          "type": "Graph.Digraph storage"
        },
        {
          "name": "caseID",
          "type": "uint256"
        }
      ],
      "name": "getActions",
      "outputs": [
        {
          "name": "",
          "type": "bytes32[]"
        }
      ],
      "payable": false,
      "stateMutability": "nonpayable",
      "type": "function"
    },
    {
      "constant": false,
      "inputs": [
        {
          "name": "self",
          "type": "Graph.Digraph storage"
        },
        {
          "name": "v",
          "type": "uint256"
        },
        {
          "name": "caseID",
          "type": "uint256"
        }
      ],
      "name": "isUndone",
      "outputs": [
        {
          "name": "",
          "type": "bool"
        }
      ],
      "payable": false,
      "stateMutability": "nonpayable",
      "type": "function"
    },
    {
      "constant": false,
      "inputs": [
        {
          "name": "arr",
          "type": "bytes32[]"
        },
        {
          "name": "count",
          "type": "uint256"
        }
      ],
      "name": "cut",
      "outputs": [
        {
          "name": "",
          "type": "bytes32[]"
        }
      ],
      "payable": false,
      "stateMutability": "nonpayable",
      "type": "function"
    }
  ],
  "bytecode": "0x6108c2610030600b82828239805160001a6073146000811461002057610022565bfe5b5030600052607381538281f3fe73000000000000000000000000000000000000000030146080604052600436106100ba5763ffffffff7c010000000000000000000000000000000000000000000000000000000060003504166362d038aa81146100bf5780638756d4341461013257806387a87bcc146101735780639c639b4b146101a9578063aab97e7a146101d9578063af72cd2414610209578063b3f7eca414610253578063b68529c514610305578063ebf856851461032f578063f2e3878814610365575b600080fd5b6100e2600480360360408110156100d557600080fd5b5080359060200135610395565b60408051602080825283518183015283519192839290830191858101910280838360005b8381101561011e578181015183820152602001610106565b505050509050019250505060405180910390f35b81801561013e57600080fd5b506101716004803603608081101561015557600080fd5b508035906020810135906040810135906060013560ff16610420565b005b81801561017f57600080fd5b506101716004803603606081101561019657600080fd5b5080359060208101359060400135610489565b8180156101b557600080fd5b50610171600480360360408110156101cc57600080fd5b50803590602001356104f9565b8180156101e557600080fd5b50610171600480360360408110156101fc57600080fd5b508035906020013561059f565b81801561021557600080fd5b5061023f6004803603606081101561022c57600080fd5b5080359060208101359060400135610604565b604080519115158252519081900360200190f35b81801561025f57600080fd5b506100e26004803603604081101561027657600080fd5b81019060208101813564010000000081111561029157600080fd5b8201836020820111156102a357600080fd5b803590602001918460208302840111640100000000831117156102c557600080fd5b919080806020026020016040519081016040528093929190818152602001838360200280828437600092019190915250929550509135925061064e915050565b81801561031157600080fd5b506101716004803603602081101561032857600080fd5b50356106c9565b81801561033b57600080fd5b506101716004803603606081101561035257600080fd5b50803590602081013590604001356106cf565b81801561037157600080fd5b506100e26004803603604081101561038857600080fd5b50803590602001356106f2565b60008181526002830160205260409020546001830180546060929081106103b857fe5b906000526020600020906004020160010180548060200260200160405190810160405280929190818152602001828054801561041357602002820191906000526020600020905b8154815260200190600101908083116103ff575b5050505050905092915050565b60008381526002850160205260408120546001860180549192918390811061044457fe5b600091825260208083208784526003600490930201918201905260409091208054919250849160ff1916600183600281111561047c57fe5b0217905550505050505050565b6001830180548390811061049957fe5b600091825260208083206001600490930201820180548084018255908452922090910182905583018054829081106104cd57fe5b600091825260208083206002600490930201919091018054600181018255908352912001919091555050565b8154600082815260028401602090815260408083209390935582516060810184528481528351838152808301855281830190815284518481528084018652948201949094526001808701805480830180835591865294849020835160049096020194855594518051929493610574939285019291019061082e565b506040820151805161059091600284019160209091019061082e565b50508354600101909355505050565b60005b60018301548110156105ff5760018381018054839081106105bf57fe5b60009182526020808320868452600360049093020191909101905260409020805460ff191660018360028111156105f257fe5b02179055506001016105a2565b505050565b6000600180850180548590811061061757fe5b600091825260208083208684526003600490930201919091019052604090205460ff16600281111561064557fe5b14949350505050565b6060808260405190808252806020026020018201604052801561067b578160200160208202803883390190505b50905060005b838110156106c157848181518110151561069757fe5b9060200190602002015182828151811015156106af57fe5b60209081029091010152600101610681565b509392505050565b60009055565b6000828152600284016020526040808220548383529120546105ff918591610489565b600182018054604080518281526020808402820101909152606092918391908015610727578160200160208202803883390190505b5090506000805b835481101561081957610742878288610604565b1561081157600160005b858381548110151561075a57fe5b9060005260206000209060040201600201805490508110156107c9576107b789878581548110151561078857fe5b9060005260206000209060040201600201838154811015156107a657fe5b90600052602060002001548a610604565b156107c157600091505b60010161074c565b50801561080f5784828154811015156107de57fe5b90600052602060002090600402016000015484848151811015156107fe57fe5b602090810290910101526001909201915b505b60010161072e565b50610824828261064e565b9695505050505050565b828054828255906000526020600020908101928215610869579160200282015b8281111561086957825182559160200191906001019061084e565b50610875929150610879565b5090565b61089391905b80821115610875576000815560010161087f565b9056fea165627a7a723058202d0c6f939b74fb1d8bcf03284dbd04ec59cb06896840b7420fdb5f9b5e1c9a6d0029",
  "source": "pragma solidity ^0.5.0;\n\nlibrary Graph {\n\n  enum Status { DONE, UNDONE, MARKED }\n  struct Digraph {\n    uint V;\n    Vertex[] vertxs;\n    mapping (bytes32 => uint) titleToID;\n  }\n\n  struct Vertex {\n  \tbytes32 title;\n    uint[] adj;\n    uint[] req;\n    mapping (uint => Status) status;\n  }\n\n  function init(Digraph storage self) public\n  {\n    self.V = 0;\n  }\n\n  function addVertex(Digraph storage self, bytes32 title) public {\n    self.titleToID[title] = self.V;\n    self.vertxs.push(Vertex(title, new uint[](0), new uint[](0)));\n    self.V++;\n  }\n\n  function getAdj(Digraph storage self, bytes32 v) public view returns (uint[] memory)\n  { return self.vertxs[self.titleToID[v]].adj; }\n\n  function addEdge(Digraph storage self, bytes32 v, bytes32 w) public {\n    addEdgeByID(self, self.titleToID[v], self.titleToID[w]);\n  }\n\n  function addEdgeByID(Digraph storage self, uint v, uint w) public\n  {\n    self.vertxs[v].adj.push(w);\n    self.vertxs[w].req.push(v);\n  }\n\n  function setStatus(Digraph storage self, bytes32 title, uint caseID, Status status) public {\n    uint id = self.titleToID[title];\n    Vertex storage v = self.vertxs[id];\n    v.status[caseID] = status;\n  }\n\n  function addCase(Digraph storage self, uint caseID) public {\n    for(uint i = 0; i < self.vertxs.length; i++) {\n      self.vertxs[i].status[caseID] = Status.UNDONE;\n    }\n  }\n\n  function getActions(Digraph storage self, uint caseID) public returns (bytes32[] memory) {\n    Vertex[] storage vs = self.vertxs;\n    bytes32[] memory toDo = new bytes32[](vs.length);\n    uint count = 0;\n\n    for (uint i = 0; i < vs.length; i++) {\n      if (isUndone(self, i, caseID)) {\n        bool isReady = true;\n\n        for(uint j = 0; j < vs[i].req.length; j++) {\n          if (isUndone(self, vs[i].req[j], caseID)) { isReady = false; }\n        }\n\n        if (isReady) {\n          toDo[count] = vs[i].title;\n          count++;\n        }\n      }\n    }\n\n    return cut(toDo, count);\n  }\n\n  function isUndone(Digraph storage self, uint v, uint caseID) public returns (bool) {\n    return (self.vertxs[v].status[caseID] == Status.UNDONE);\n  }\n\n  function cut(bytes32[] memory arr, uint count) public returns (bytes32[] memory) {\n    bytes32[] memory res = new bytes32[](count);\n    for (uint i = 0; i < count; i++) { res[i] = arr[i]; }\n    return res;\n  }\n\n  /* function getActions(Digraph storage self, uint caseID) public returns () {\n    Vertex[] storage vs = self.vertxs;\n    Vertex[] memory toDo = self.vertxs;\n    int counter = self.vertxs.length;\n\n\n    for (uint i = 0; i < vs.length; i++) {\n      if (toDo[i] && vs[i].status[caseID] == Status.DONE) {\n        delete toDo[i];\n        counter--;\n      } else {\n        for(uint j = 0; j < vs[i].adj.length; j++) {\n          uint adj = vs[i].adj[j];\n          if (toDo[adj]) {\n            delete toDo[adj];\n            counter--;\n          }\n        }\n      }\n    }\n\n    Vertex[] memory toDo = Vertex[](counter);\n    for (uint i = 0; i < vs.length; i++) {\n      if (toDo[i]) {\n\n      }\n    }\n  } */\n\n  /* function isReady(Digraph storage self, bytes32 title, uint caseID) public view returns (bool){\n\n  }\n\n  function isReadyByID(Digraph storage self, uint id, uint caseID) public view returns (bool){\n\n  } */\n\n\n  /* struct Data {\n    bytes32 title;\n    bool done;\n    uint[] documents;\n  }\n\n  struct Edge {\n    bytes32 from;\n    bytes32 to;\n  }\n\n  mapping (bytes32 => Data) public datas;\n\n  Edge[] public edges;\n\n  constructor() public {\n    _addData(\"root\");\n    datas[\"root\"].done = true;\n  }\n\n  function _addData(bytes32 _title) {\n    datas[_title] = Data(_title, false, new uint[](0));\n  }\n\n  function _addEdge(bytes32 from, bytes32 to) {\n    edges.push(Edge(from,to));\n  } */\n\n}\n",
  "sourcePath": "/Users/livhborre/Projects/Bachelor/process42/contracts/Graph.sol",
  "compiler": {
    "name": "solc",
    "version": "0.5.0+commit.1d4f565a.Emscripten.clang"
  },
  "schemaVersion": "3.0.1",
  "updatedAt": "2019-03-03T12:08:31.048Z",
  "devdoc": {
    "methods": {}
  },
  "userdoc": {
    "methods": {}
  }
}