{
  "contractName": "Metering",
  "abi": [
    {
      "constant": true,
      "inputs": [
        {
          "name": "",
          "type": "uint256"
        }
      ],
      "name": "edges",
      "outputs": [
        {
          "name": "from",
          "type": "bytes32"
        },
        {
          "name": "to",
          "type": "bytes32"
        }
      ],
      "payable": false,
      "stateMutability": "view",
      "type": "function",
      "signature": "0x00baae78"
    },
    {
      "constant": true,
      "inputs": [
        {
          "name": "",
          "type": "bytes32"
        }
      ],
      "name": "datas",
      "outputs": [
        {
          "name": "title",
          "type": "bytes32"
        },
        {
          "name": "done",
          "type": "bool"
        }
      ],
      "payable": false,
      "stateMutability": "view",
      "type": "function",
      "signature": "0x064d07d2"
    },
    {
      "inputs": [],
      "payable": false,
      "stateMutability": "nonpayable",
      "type": "constructor",
      "signature": "constructor"
    }
  ],
  "bytecode": "0x608060405234801561001057600080fd5b506100437f726f6f7400000000000000000000000000000000000000000000000000000000640100000000610448810204565b7f726f6f740000000000000000000000000000000000000000000000000000000060009081526020527f065415422c7314fb6be32255cc77e4ea28b27ba4fc8f97b2efe37822f72731c8805460ff191660011790556100ca7f417262656a647374696465720000000000000000000000000000000000000000640100000000610448810204565b6100fc7f46616d696c6965666f72686f6c64000000000000000000000000000000000000640100000000610448810204565b61011c6000805160206106e7833981519152640100000000610448810204565b61014e7f567572646572696e672061662074696d65720000000000000000000000000000640100000000610448810204565b6101807f567572646572696e672061662073706172656465207564676966746572000000640100000000610448810204565b6101b27f42657265676e696e670000000000000000000000000000000000000000000000640100000000610448810204565b6102057f726f6f74000000000000000000000000000000000000000000000000000000007f417262656a6473746964657200000000000000000000000000000000000000006401000000006104b0810204565b6102587f726f6f74000000000000000000000000000000000000000000000000000000007f46616d696c6965666f72686f6c640000000000000000000000000000000000006401000000006104b0810204565b6102997f726f6f74000000000000000000000000000000000000000000000000000000006000805160206106e78339815191526401000000006104b0810204565b6102ec7f417262656a6473746964657200000000000000000000000000000000000000007f567572646572696e672061662074696d657200000000000000000000000000006401000000006104b0810204565b61033f7f417262656a6473746964657200000000000000000000000000000000000000007f567572646572696e6720616620737061726564652075646769667465720000006401000000006104b0810204565b6103927f46616d696c6965666f72686f6c640000000000000000000000000000000000007f567572646572696e672061662074696d657200000000000000000000000000006401000000006104b0810204565b6103d37f46616d696c6965666f72686f6c640000000000000000000000000000000000006000805160206107078339815191526401000000006104b0810204565b6104146000805160206106e78339815191527f567572646572696e672061662074696d657200000000000000000000000000006401000000006104b0810204565b6104436000805160206106e78339815191526000805160206107078339815191526401000000006104b0810204565b61058f565b6040805160608101825282815260006020808301828152845183815280830186528486019081528684528383529490922083518155915160018301805460ff191691151591909117905592518051929391926104aa9260028501920190610527565b50505050565b604080518082019091529182526020820190815260018054808201825560009190915291517fb10e2d527612073b26eecdfd717e6a320cf44b4afac2b0732d9fcbe2b7fa0cf6600290930292830155517fb10e2d527612073b26eecdfd717e6a320cf44b4afac2b0732d9fcbe2b7fa0cf790910155565b828054828255906000526020600020908101928215610562579160200282015b82811115610562578251825591602001919060010190610547565b5061056e929150610572565b5090565b61058c91905b8082111561056e5760008155600101610578565b90565b6101498061059e6000396000f3fe60806040526004361061004a5763ffffffff7c0100000000000000000000000000000000000000000000000000000000600035041662baae78811461004f578063064d07d214610092575b600080fd5b34801561005b57600080fd5b506100796004803603602081101561007257600080fd5b50356100d5565b6040805192835260208301919091528051918290030190f35b34801561009e57600080fd5b506100bc600480360360208110156100b557600080fd5b5035610101565b6040805192835290151560208301528051918290030190f35b60018054829081106100e357fe5b60009182526020909120600290910201805460019091015490915082565b6000602081905290815260409020805460019091015460ff168256fea165627a7a723058208e8afd74b19f6a77ca4129652b1e5810f3cadb0d4f39ff1e89b23e9a64336c9c0029417262656a6473666c656b736962696c69746574000000000000000000000000567572646572696e672061662061662073706172656465207564676966746572",
  "source": "pragma solidity ^0.5.0;\r\n\r\nimport './Process.sol';\r\n\r\ncontract Metering is Process {\r\n\r\n  constructor() public {\r\n    _addData(\"Arbejdstider\");\r\n    _addData(\"Familieforhold\");\r\n    _addData(\"Arbejdsfleksibilitet\");\r\n    _addData(\"Vurdering af timer\");\r\n    _addData(\"Vurdering af sparede udgifter\");\r\n    _addData(\"Beregning\");\r\n\r\n    _addEdge(\"root\",\"Arbejdstider\");\r\n    _addEdge(\"root\",\"Familieforhold\");\r\n    _addEdge(\"root\",\"Arbejdsfleksibilitet\");\r\n\r\n    _addEdge(\"Arbejdstider\",\"Vurdering af timer\");\r\n    _addEdge(\"Arbejdstider\",\"Vurdering af sparede udgifter\");\r\n    _addEdge(\"Familieforhold\",\"Vurdering af timer\");\r\n    _addEdge(\"Familieforhold\",\"Vurdering af af sparede udgifter\");\r\n    _addEdge(\"Arbejdsfleksibilitet\",\"Vurdering af timer\");\r\n    _addEdge(\"Arbejdsfleksibilitet\",\"Vurdering af af sparede udgifter\");\r\n\r\n  }\r\n\r\n\r\n  /* function possibleActions() returns (Data[] storage) {\r\n\r\n  } */\r\n}\r\n",
  "sourcePath": "D:/Data/Projects/bachelor-project/bachelor/BA-process42/contracts/Metering.sol",
  "compiler": {
    "name": "solc",
    "version": "0.5.0+commit.1d4f565a.Emscripten.clang"
  },
  "schemaVersion": "3.0.1",
  "updatedAt": "2019-02-24T15:28:49.962Z",
  "devdoc": {
    "methods": {}
  },
  "userdoc": {
    "methods": {}
  }
}