{
  "contractName": "Metering",
  "abi": [
    {
      "constant": false,
      "inputs": [],
      "name": "test",
      "outputs": [
        {
          "name": "",
          "type": "bytes32[]"
        }
      ],
      "payable": false,
      "stateMutability": "nonpayable",
      "type": "function"
    }
  ],
  "bytecode": "0x608060408190527fb68529c50000000000000000000000000000000000000000000000000000000081526000608481905273__Graph_________________________________9163b68529c59160a49160248186803b15801561006157600080fd5b505af4158015610075573d6000803e3d6000fd5b5050604080517f9c639b4b0000000000000000000000000000000000000000000000000000000081526000600482018190527f726f6f74000000000000000000000000000000000000000000000000000000006024830152915173__Graph_________________________________9450639c639b4b935060448083019392829003018186803b15801561010857600080fd5b505af415801561011c573d6000803e3d6000fd5b5050604080517f9c639b4b0000000000000000000000000000000000000000000000000000000081526000600482018190527f66697273740000000000000000000000000000000000000000000000000000006024830152915173__Graph_________________________________9450639c639b4b935060448083019392829003018186803b1580156101af57600080fd5b505af41580156101c3573d6000803e3d6000fd5b5050604080517f9c639b4b0000000000000000000000000000000000000000000000000000000081526000600482018190527f7365636f6e6400000000000000000000000000000000000000000000000000006024830152915173__Graph_________________________________9450639c639b4b935060448083019392829003018186803b15801561025657600080fd5b505af415801561026a573d6000803e3d6000fd5b5050604080517f9c639b4b0000000000000000000000000000000000000000000000000000000081526000600482018190527f74686972640000000000000000000000000000000000000000000000000000006024830152915173__Graph_________________________________9450639c639b4b935060448083019392829003018186803b1580156102fd57600080fd5b505af4158015610311573d6000803e3d6000fd5b5050604080517febf856850000000000000000000000000000000000000000000000000000000081526000600482018190527f726f6f740000000000000000000000000000000000000000000000000000000060248301527f66697273740000000000000000000000000000000000000000000000000000006044830152915173__Graph_________________________________945063ebf85685935060648083019392829003018186803b1580156103ca57600080fd5b505af41580156103de573d6000803e3d6000fd5b5050604080517febf856850000000000000000000000000000000000000000000000000000000081526000600482018190527f726f6f740000000000000000000000000000000000000000000000000000000060248301527f74686972640000000000000000000000000000000000000000000000000000006044830152915173__Graph_________________________________945063ebf85685935060648083019392829003018186803b15801561049757600080fd5b505af41580156104ab573d6000803e3d6000fd5b5050604080517febf856850000000000000000000000000000000000000000000000000000000081526000600482018190527f746869726400000000000000000000000000000000000000000000000000000060248301527f7365636f6e6400000000000000000000000000000000000000000000000000006044830152915173__Graph_________________________________945063ebf85685935060648083019392829003018186803b15801561056457600080fd5b505af4158015610578573d6000803e3d6000fd5b505050506103da8061058b6000396000f3fe6080604052600436106100405763ffffffff7c0100000000000000000000000000000000000000000000000000000000600035041663f8a8fd6d8114610045575b600080fd5b34801561005157600080fd5b5061005a6100aa565b60408051602080825283518183015283519192839290830191858101910280838360005b8381101561009657818101518382015260200161007e565b505050509050019250505060405180910390f35b604080517faab97e7a0000000000000000000000000000000000000000000000000000000081526000600482018190526024820181905291516060929173__Graph_________________________________9163aab97e7a916044808201928692909190829003018186803b15801561012257600080fd5b505af4158015610136573d6000803e3d6000fd5b5050604080517f8756d4340000000000000000000000000000000000000000000000000000000081526000600482018190527f726f6f740000000000000000000000000000000000000000000000000000000060248301526044820186905260648201819052915173__Graph_________________________________9450638756d434935060848083019392829003018186803b1580156101d757600080fd5b505af41580156101eb573d6000803e3d6000fd5b5050604080517f8756d4340000000000000000000000000000000000000000000000000000000081526000600482018190527f666972737400000000000000000000000000000000000000000000000000000060248301526044820186905260648201819052915173__Graph_________________________________9450638756d434935060848083019392829003018186803b15801561028c57600080fd5b505af41580156102a0573d6000803e3d6000fd5b505050506060600073__Graph_________________________________63f2e387889091846040518363ffffffff167c0100000000000000000000000000000000000000000000000000000000028152600401808381526020018281526020019250505060006040518083038186803b15801561031c57600080fd5b505af4158015610330573d6000803e3d6000fd5b505050506040513d6000823e601f3d908101601f19168201604052602081101561035957600080fd5b81019080805164010000000081111561037157600080fd5b8201602081018481111561038457600080fd5b81518560208202830111640100000000821117156103a157600080fd5b509096505050505050509056fea165627a7a72305820b3ac788705d45d721010e7c38a9438ca8b9c193098b1420ed7bcd4a8f19a06830029",
  "deployedBytecode": "0x6080604052600436106100405763ffffffff7c0100000000000000000000000000000000000000000000000000000000600035041663f8a8fd6d8114610045575b600080fd5b34801561005157600080fd5b5061005a6100aa565b60408051602080825283518183015283519192839290830191858101910280838360005b8381101561009657818101518382015260200161007e565b505050509050019250505060405180910390f35b604080517faab97e7a0000000000000000000000000000000000000000000000000000000081526000600482018190526024820181905291516060929173__Graph_________________________________9163aab97e7a916044808201928692909190829003018186803b15801561012257600080fd5b505af4158015610136573d6000803e3d6000fd5b5050604080517f8756d4340000000000000000000000000000000000000000000000000000000081526000600482018190527f726f6f740000000000000000000000000000000000000000000000000000000060248301526044820186905260648201819052915173__Graph_________________________________9450638756d434935060848083019392829003018186803b1580156101d757600080fd5b505af41580156101eb573d6000803e3d6000fd5b5050604080517f8756d4340000000000000000000000000000000000000000000000000000000081526000600482018190527f666972737400000000000000000000000000000000000000000000000000000060248301526044820186905260648201819052915173__Graph_________________________________9450638756d434935060848083019392829003018186803b15801561028c57600080fd5b505af41580156102a0573d6000803e3d6000fd5b505050506060600073__Graph_________________________________63f2e387889091846040518363ffffffff167c0100000000000000000000000000000000000000000000000000000000028152600401808381526020018281526020019250505060006040518083038186803b15801561031c57600080fd5b505af4158015610330573d6000803e3d6000fd5b505050506040513d6000823e601f3d908101601f19168201604052602081101561035957600080fd5b81019080805164010000000081111561037157600080fd5b8201602081018481111561038457600080fd5b81518560208202830111640100000000821117156103a157600080fd5b509096505050505050509056fea165627a7a72305820b3ac788705d45d721010e7c38a9438ca8b9c193098b1420ed7bcd4a8f19a06830029",
  "source": "pragma solidity ^0.5.0;\r\n\r\nimport './Process.sol';\r\n\r\ncontract Metering is Process {\r\n\r\n  /* constructor() public {\r\n    _addData(\"Arbejdstider\");\r\n    _addData(\"Familieforhold\");\r\n    _addData(\"Arbejdsfleksibilitet\");\r\n    _addData(\"Vurdering af timer\");\r\n    _addData(\"Vurdering af sparede udgifter\");\r\n    _addData(\"Beregning\");\r\n\r\n    _addEdge(\"root\",\"Arbejdstider\");\r\n    _addEdge(\"root\",\"Familieforhold\");\r\n    _addEdge(\"root\",\"Arbejdsfleksibilitet\");\r\n\r\n    _addEdge(\"Arbejdstider\",\"Vurdering af timer\");\r\n    _addEdge(\"Arbejdstider\",\"Vurdering af sparede udgifter\");\r\n    _addEdge(\"Familieforhold\",\"Vurdering af timer\");\r\n    _addEdge(\"Familieforhold\",\"Vurdering af af sparede udgifter\");\r\n    _addEdge(\"Arbejdsfleksibilitet\",\"Vurdering af timer\");\r\n    _addEdge(\"Arbejdsfleksibilitet\",\"Vurdering af af sparede udgifter\");\r\n\r\n  } */\r\n\r\n\r\n  /* function possibleActions() returns (Data[] storage) {\r\n\r\n  } */\r\n}\r\n",
  "sourcePath": "D:/Data/Projects/bachelor-project/bachelor/BA-process42/contracts/Metering.sol",
  "compiler": {
    "name": "solc",
    "version": "0.5.0+commit.1d4f565a.Emscripten.clang"
  },
  "schemaVersion": "3.0.1",
  "updatedAt": "2019-03-03T12:25:54.891Z",
  "devdoc": {
    "methods": {}
  },
  "userdoc": {
    "methods": {}
  }
}