{
  "contractName": "Process",
  "abi": [
    {
      "constant": true,
      "inputs": [
        {
          "name": "",
          "type": "uint256"
        }
      ],
      "name": "edges",
      "outputs": [
        {
          "name": "from",
          "type": "bytes32"
        },
        {
          "name": "to",
          "type": "bytes32"
        }
      ],
      "payable": false,
      "stateMutability": "view",
      "type": "function",
      "signature": "0x00baae78"
    },
    {
      "constant": true,
      "inputs": [
        {
          "name": "",
          "type": "bytes32"
        }
      ],
      "name": "datas",
      "outputs": [
        {
          "name": "title",
          "type": "bytes32"
        },
        {
          "name": "done",
          "type": "bool"
        }
      ],
      "payable": false,
      "stateMutability": "view",
      "type": "function",
      "signature": "0x064d07d2"
    },
    {
      "inputs": [],
      "payable": false,
      "stateMutability": "nonpayable",
      "type": "constructor",
      "signature": "constructor"
    }
  ],
  "bytecode": "0x608060405234801561001057600080fd5b506100437f726f6f740000000000000000000000000000000000000000000000000000000064010000000061009d810204565b7f726f6f740000000000000000000000000000000000000000000000000000000060009081526020527f065415422c7314fb6be32255cc77e4ea28b27ba4fc8f97b2efe37822f72731c8805460ff1916600117905561016d565b6040805160608101825282815260006020808301828152845183815280830186528486019081528684528383529490922083518155915160018301805460ff191691151591909117905592518051929391926100ff9260028501920190610105565b50505050565b828054828255906000526020600020908101928215610140579160200282015b82811115610140578251825591602001919060010190610125565b5061014c929150610150565b5090565b61016a91905b8082111561014c5760008155600101610156565b90565b6101498061017c6000396000f3fe60806040526004361061004a5763ffffffff7c0100000000000000000000000000000000000000000000000000000000600035041662baae78811461004f578063064d07d214610092575b600080fd5b34801561005b57600080fd5b506100796004803603602081101561007257600080fd5b50356100d5565b6040805192835260208301919091528051918290030190f35b34801561009e57600080fd5b506100bc600480360360208110156100b557600080fd5b5035610101565b6040805192835290151560208301528051918290030190f35b60018054829081106100e357fe5b60009182526020909120600290910201805460019091015490915082565b6000602081905290815260409020805460019091015460ff168256fea165627a7a723058202e6adcbfb58522ca8046f407af99577c440c3e3855c47ca933e6b356030db7e00029",
  "source": "pragma solidity ^0.5.0;\r\n\r\ncontract Process {\r\n  struct Data {\r\n    bytes32 title;\r\n    bool done;\r\n    uint[] documents;\r\n  }\r\n\r\n  struct Edge {\r\n    bytes32 from;\r\n    bytes32 to;\r\n  }\r\n\r\n  mapping (bytes32 => Data) public datas;\r\n\r\n  Edge[] public edges;\r\n\r\n  constructor() public {\r\n    _addData(\"root\");\r\n    datas[\"root\"].done = true;\r\n  }\r\n\r\n  function _addData(bytes32 _title) internal {\r\n    datas[_title] = Data(_title, false, new uint[](0));\r\n  }\r\n\r\n  function _addEdge(bytes32 from, bytes32 to) internal {\r\n    edges.push(Edge(from,to));\r\n  }\r\n\r\n}\r\n",
  "sourcePath": "D:\\Data\\Projects\\bachelor-project\\bachelor\\BA-process42\\contracts\\Process.sol",
  "compiler": {
    "name": "solc",
    "version": "0.5.0+commit.1d4f565a.Emscripten.clang"
  },
  "schemaVersion": "3.0.1",
  "updatedAt": "2019-02-24T15:28:49.957Z",
  "devdoc": {
    "methods": {}
  },
  "userdoc": {
    "methods": {}
  }
}