{
  "contractName": "Process",
  "abi": [
    {
      "inputs": [],
      "payable": false,
      "stateMutability": "nonpayable",
      "type": "constructor"
    },
    {
      "constant": false,
      "inputs": [],
      "name": "test",
      "outputs": [
        {
          "name": "",
          "type": "bytes32[]"
        }
      ],
      "payable": false,
      "stateMutability": "nonpayable",
      "type": "function"
    }
  ],
  "bytecode": "0x608060405234801561001057600080fd5b50604080517fb68529c5000000000000000000000000000000000000000000000000000000008152600060048201819052915173__Graph_________________________________9263b68529c59260248082019391829003018186803b15801561007a57600080fd5b505af415801561008e573d6000803e3d6000fd5b5050604080517f9c639b4b0000000000000000000000000000000000000000000000000000000081526000600482018190527f726f6f74000000000000000000000000000000000000000000000000000000006024830152915173__Graph_________________________________9450639c639b4b935060448083019392829003018186803b15801561012157600080fd5b505af4158015610135573d6000803e3d6000fd5b5050604080517f9c639b4b0000000000000000000000000000000000000000000000000000000081526000600482018190527f66697273740000000000000000000000000000000000000000000000000000006024830152915173__Graph_________________________________9450639c639b4b935060448083019392829003018186803b1580156101c857600080fd5b505af41580156101dc573d6000803e3d6000fd5b5050604080517f9c639b4b0000000000000000000000000000000000000000000000000000000081526000600482018190527f7365636f6e6400000000000000000000000000000000000000000000000000006024830152915173__Graph_________________________________9450639c639b4b935060448083019392829003018186803b15801561026f57600080fd5b505af4158015610283573d6000803e3d6000fd5b5050604080517f9c639b4b0000000000000000000000000000000000000000000000000000000081526000600482018190527f74686972640000000000000000000000000000000000000000000000000000006024830152915173__Graph_________________________________9450639c639b4b935060448083019392829003018186803b15801561031657600080fd5b505af415801561032a573d6000803e3d6000fd5b5050604080517febf856850000000000000000000000000000000000000000000000000000000081526000600482018190527f726f6f740000000000000000000000000000000000000000000000000000000060248301527f66697273740000000000000000000000000000000000000000000000000000006044830152915173__Graph_________________________________945063ebf85685935060648083019392829003018186803b1580156103e357600080fd5b505af41580156103f7573d6000803e3d6000fd5b5050604080517febf856850000000000000000000000000000000000000000000000000000000081526000600482018190527f726f6f740000000000000000000000000000000000000000000000000000000060248301527f74686972640000000000000000000000000000000000000000000000000000006044830152915173__Graph_________________________________945063ebf85685935060648083019392829003018186803b1580156104b057600080fd5b505af41580156104c4573d6000803e3d6000fd5b5050604080517febf856850000000000000000000000000000000000000000000000000000000081526000600482018190527f746869726400000000000000000000000000000000000000000000000000000060248301527f7365636f6e6400000000000000000000000000000000000000000000000000006044830152915173__Graph_________________________________945063ebf85685935060648083019392829003018186803b15801561057d57600080fd5b505af4158015610591573d6000803e3d6000fd5b505050506103da806105a46000396000f3fe6080604052600436106100405763ffffffff7c0100000000000000000000000000000000000000000000000000000000600035041663f8a8fd6d8114610045575b600080fd5b34801561005157600080fd5b5061005a6100aa565b60408051602080825283518183015283519192839290830191858101910280838360005b8381101561009657818101518382015260200161007e565b505050509050019250505060405180910390f35b604080517faab97e7a0000000000000000000000000000000000000000000000000000000081526000600482018190526024820181905291516060929173__Graph_________________________________9163aab97e7a916044808201928692909190829003018186803b15801561012257600080fd5b505af4158015610136573d6000803e3d6000fd5b5050604080517f8756d4340000000000000000000000000000000000000000000000000000000081526000600482018190527f726f6f740000000000000000000000000000000000000000000000000000000060248301526044820186905260648201819052915173__Graph_________________________________9450638756d434935060848083019392829003018186803b1580156101d757600080fd5b505af41580156101eb573d6000803e3d6000fd5b5050604080517f8756d4340000000000000000000000000000000000000000000000000000000081526000600482018190527f666972737400000000000000000000000000000000000000000000000000000060248301526044820186905260648201819052915173__Graph_________________________________9450638756d434935060848083019392829003018186803b15801561028c57600080fd5b505af41580156102a0573d6000803e3d6000fd5b505050506060600073__Graph_________________________________63f2e387889091846040518363ffffffff167c0100000000000000000000000000000000000000000000000000000000028152600401808381526020018281526020019250505060006040518083038186803b15801561031c57600080fd5b505af4158015610330573d6000803e3d6000fd5b505050506040513d6000823e601f3d908101601f19168201604052602081101561035957600080fd5b81019080805164010000000081111561037157600080fd5b8201602081018481111561038457600080fd5b81518560208202830111640100000000821117156103a157600080fd5b509096505050505050509056fea165627a7a72305820c2118ac32d3cf692b3786d68cf9d7709cff8b4a2b8240db498724eefd4d1ade00029",
  "deployedBytecode": "0x6080604052600436106100405763ffffffff7c0100000000000000000000000000000000000000000000000000000000600035041663f8a8fd6d8114610045575b600080fd5b34801561005157600080fd5b5061005a6100aa565b60408051602080825283518183015283519192839290830191858101910280838360005b8381101561009657818101518382015260200161007e565b505050509050019250505060405180910390f35b604080517faab97e7a0000000000000000000000000000000000000000000000000000000081526000600482018190526024820181905291516060929173__Graph_________________________________9163aab97e7a916044808201928692909190829003018186803b15801561012257600080fd5b505af4158015610136573d6000803e3d6000fd5b5050604080517f8756d4340000000000000000000000000000000000000000000000000000000081526000600482018190527f726f6f740000000000000000000000000000000000000000000000000000000060248301526044820186905260648201819052915173__Graph_________________________________9450638756d434935060848083019392829003018186803b1580156101d757600080fd5b505af41580156101eb573d6000803e3d6000fd5b5050604080517f8756d4340000000000000000000000000000000000000000000000000000000081526000600482018190527f666972737400000000000000000000000000000000000000000000000000000060248301526044820186905260648201819052915173__Graph_________________________________9450638756d434935060848083019392829003018186803b15801561028c57600080fd5b505af41580156102a0573d6000803e3d6000fd5b505050506060600073__Graph_________________________________63f2e387889091846040518363ffffffff167c0100000000000000000000000000000000000000000000000000000000028152600401808381526020018281526020019250505060006040518083038186803b15801561031c57600080fd5b505af4158015610330573d6000803e3d6000fd5b505050506040513d6000823e601f3d908101601f19168201604052602081101561035957600080fd5b81019080805164010000000081111561037157600080fd5b8201602081018481111561038457600080fd5b81518560208202830111640100000000821117156103a157600080fd5b509096505050505050509056fea165627a7a72305820c2118ac32d3cf692b3786d68cf9d7709cff8b4a2b8240db498724eefd4d1ade00029",
  "source": "pragma solidity ^0.5.0;\r\n\r\nimport {Graph} from \"./Graph.sol\";\r\n\r\ncontract Process {\r\n  using Graph for Graph.Digraph;\r\n\r\n  Graph.Digraph graph;\r\n  Graph.Vertex vertex;\r\n\r\n  constructor() public {\r\n    graph.init();\r\n    graph.addVertex(\"root\");\r\n    graph.addVertex(\"first\");\r\n    graph.addVertex(\"second\");\r\n    graph.addVertex(\"third\");\r\n    graph.addEdge(\"root\", \"first\");\r\n    graph.addEdge(\"root\", \"third\");\r\n    graph.addEdge(\"third\", \"second\");\r\n  }\r\n\r\n  /* function test() public view returns (bytes32[] memory) {\r\n    uint[] memory adj = graph.vertxs[0].adj;\r\n    uint length = adj.length;\r\n    bytes32[] memory res = new bytes32[](length);\r\n    for (uint i = 0; i < length; i++) {\r\n      res[i] = graph.vertxs[adj[i]].title;\r\n    }\r\n    return res;\r\n  } */\r\n\r\n  function test() public returns (bytes32[] memory) {\r\n    uint caseID = 0;\r\n    graph.addCase(caseID);\r\n    graph.setStatus(\"root\", caseID, Graph.Status.DONE);\r\n    graph.setStatus(\"first\", caseID, Graph.Status.DONE);\r\n    bytes32[] memory toDo = graph.getActions(caseID);\r\n    return toDo;\r\n  }\r\n\r\n  /* struct Data {\r\n    bytes32 title;\r\n    bool done;\r\n    uint[] documents;\r\n  }\r\n\r\n  struct Edge {\r\n    bytes32 from;\r\n    bytes32 to;\r\n  }\r\n\r\n  mapping (bytes32 => Data) public datas;\r\n\r\n  Edge[] public edges;\r\n\r\n  constructor() public {\r\n    _addData(\"root\");\r\n    datas[\"root\"].done = true;\r\n  }\r\n\r\n  function _addData(bytes32 _title) {\r\n    datas[_title] = Data(_title, false, new uint[](0));\r\n  }\r\n\r\n  function _addEdge(bytes32 from, bytes32 to) {\r\n    edges.push(Edge(from,to));\r\n  } */\r\n\r\n}\r\n",
  "sourcePath": "D:\\Data\\Projects\\bachelor-project\\bachelor\\BA-process42\\contracts\\Process.sol",
  "compiler": {
    "name": "solc",
    "version": "0.5.0+commit.1d4f565a.Emscripten.clang"
  },
  "schemaVersion": "3.0.2",
  "updatedAt": "2019-03-03T12:51:28.020Z",
  "devdoc": {
    "methods": {}
  },
  "userdoc": {
    "methods": {}
  }
}